{
  "contractName": "TrafficEvents",
  "abi": [
    {
      "constant": true,
      "inputs": [],
      "name": "eventCount",
      "outputs": [
        {
          "internalType": "uint256",
          "name": "",
          "type": "uint256"
        }
      ],
      "payable": false,
      "stateMutability": "view",
      "type": "function"
    },
    {
      "constant": false,
      "inputs": [
        {
          "internalType": "string",
          "name": "_eventType",
          "type": "string"
        },
        {
          "internalType": "string",
          "name": "_date",
          "type": "string"
        },
        {
          "internalType": "string",
          "name": "_longitude",
          "type": "string"
        },
        {
          "internalType": "string",
          "name": "_latitude",
          "type": "string"
        },
        {
          "internalType": "uint256",
          "name": "_speed",
          "type": "uint256"
        }
      ],
      "name": "createEvent",
      "outputs": [],
      "payable": false,
      "stateMutability": "nonpayable",
      "type": "function"
    },
    {
      "constant": true,
      "inputs": [
        {
          "internalType": "uint256",
          "name": "_id",
          "type": "uint256"
        }
      ],
      "name": "getEvent",
      "outputs": [
        {
          "internalType": "uint256",
          "name": "id",
          "type": "uint256"
        },
        {
          "internalType": "string",
          "name": "eventType",
          "type": "string"
        },
        {
          "internalType": "string",
          "name": "date",
          "type": "string"
        },
        {
          "internalType": "string",
          "name": "longitude",
          "type": "string"
        },
        {
          "internalType": "string",
          "name": "latitude",
          "type": "string"
        },
        {
          "internalType": "uint256",
          "name": "speed",
          "type": "uint256"
        },
        {
          "internalType": "address",
          "name": "owner",
          "type": "address"
        }
      ],
      "payable": false,
      "stateMutability": "view",
      "type": "function"
    }
  ],
  "bytecode": "0x60806040526000805534801561001457600080fd5b5061092f806100246000396000f3fe608060405234801561001057600080fd5b50600436106100415760003560e01c80636d1884e01461004657806371be2e4a14610234578063bdcf5b8e1461024e575b600080fd5b6100636004803603602081101561005c57600080fd5b5035610485565b6040518088815260200180602001806020018060200180602001878152602001866001600160a01b03166001600160a01b0316815260200185810385528b818151815260200191508051906020019080838360005b838110156100d05781810151838201526020016100b8565b50505050905090810190601f1680156100fd5780820380516001836020036101000a031916815260200191505b5085810384528a5181528a516020918201918c019080838360005b83811015610130578181015183820152602001610118565b50505050905090810190601f16801561015d5780820380516001836020036101000a031916815260200191505b5085810383528951815289516020918201918b019080838360005b83811015610190578181015183820152602001610178565b50505050905090810190601f1680156101bd5780820380516001836020036101000a031916815260200191505b5085810382528851815288516020918201918a019080838360005b838110156101f05781810151838201526020016101d8565b50505050905090810190601f16801561021d5780820380516001836020036101000a031916815260200191505b509b50505050505050505050505060405180910390f35b61023c61075e565b60408051918252519081900360200190f35b610483600480360360a081101561026457600080fd5b810190602081018135600160201b81111561027e57600080fd5b82018360208201111561029057600080fd5b803590602001918460018302840111600160201b831117156102b157600080fd5b91908080601f0160208091040260200160405190810160405280939291908181526020018383808284376000920191909152509295949360208101935035915050600160201b81111561030357600080fd5b82018360208201111561031557600080fd5b803590602001918460018302840111600160201b8311171561033657600080fd5b91908080601f0160208091040260200160405190810160405280939291908181526020018383808284376000920191909152509295949360208101935035915050600160201b81111561038857600080fd5b82018360208201111561039a57600080fd5b803590602001918460018302840111600160201b831117156103bb57600080fd5b91908080601f0160208091040260200160405190810160405280939291908181526020018383808284376000920191909152509295949360208101935035915050600160201b81111561040d57600080fd5b82018360208201111561041f57600080fd5b803590602001918460018302840111600160201b8311171561044057600080fd5b91908080601f0160208091040260200160405190810160405280939291908181526020018383808284376000920191909152509295505091359250610764915050565b005b6000818152600160208181526040808420830180548251600295821615610100026000190190911694909404601f810184900484028501840190925281845285946060948594859485948493929091908301828280156105265780601f106104fb57610100808354040283529160200191610526565b820191906000526020600020905b81548152906001019060200180831161050957829003601f168201915b50505060008b8152600160208181526040928390206002908101805485519481161561010002600019011691909104601f8101839004830284018301909452838352959b50909493509091508301828280156105c35780601f10610598576101008083540402835291602001916105c3565b820191906000526020600020905b8154815290600101906020018083116105a657829003601f168201915b50505050509450600160008981526020019081526020016000206003018054600181600116156101000203166002900480601f0160208091040260200160405190810160405280929190818152602001828054600181600116156101000203166002900480156106745780601f1061064957610100808354040283529160200191610674565b820191906000526020600020905b81548152906001019060200180831161065757829003601f168201915b50505050509350600160008981526020019081526020016000206004018054600181600116156101000203166002900480601f0160208091040260200160405190810160405280929190818152602001828054600181600116156101000203166002900480156107255780601f106106fa57610100808354040283529160200191610725565b820191906000526020600020905b81548152906001019060200180831161070857829003601f168201915b50505060009a8b525050600160205260409098206005810154600690910154979996989597949690946001600160a01b03169350915050565b60005481565b6040805160e0810182526000805480835260208084018a81528486018a9052606085018990526080850188905260a085018790523360c08601529183526001808252949092208351815590518051939491936107c89392850192919091019061085f565b50604082015180516107e491600284019160209091019061085f565b506060820151805161080091600384019160209091019061085f565b506080820151805161081c91600484019160209091019061085f565b5060a0820151600582015560c090910151600690910180546001600160a01b0319166001600160a01b039092169190911790555050600080546001019055505050565b828054600181600116156101000203166002900490600052602060002090601f016020900481019282601f106108a057805160ff19168380011785556108cd565b828001600101855582156108cd579182015b828111156108cd5782518255916020019190600101906108b2565b506108d99291506108dd565b5090565b6108f791905b808211156108d957600081556001016108e3565b9056fea265627a7a72315820dfc6cb120351a063ac60d2973dd197234e2c11dced3d6dee44fe7b473c0290a764736f6c63430005100032",
  "source": "// SPDX-License-Identifier: MIT\npragma solidity >=0.4.22 <0.9.0;\n\ncontract TrafficEvents {\n  uint public eventCount = 0;\n\n  struct Event {\n    uint id;\n    string eventType;\n    string date;\n    string longitude;\n    string latitude;\n    uint speed;\n    address owner;\n  }\n\n  mapping(uint => Event) events;\n\n  function createEvent(string memory _eventType, string memory _date, string memory _longitude,\n  string memory _latitude, uint _speed) public {\n    events[eventCount] = Event(eventCount, _eventType, _date, _longitude, _latitude, _speed, msg.sender);\n    eventCount++;\n  }\n\n  function getEvent(uint _id) public view returns(uint id, string memory eventType,\n  string memory date, string memory longitude, string memory latitude, uint speed, address owner) {\n    id = _id;\n    eventType = events[_id].eventType;\n    date = events[_id].date;\n    longitude = events[_id].longitude;\n    latitude = events[_id].latitude;\n    speed = events[_id].speed;\n    owner = events[_id].owner;\n  }\n}\n",
  "sourcePath": "/mnt/c/Users/ASUS/Desktop/Traffic-Thesis/contracts/TrafficEvents.sol",
  "compiler": {
    "name": "solc",
    "version": "0.5.16+commit.9c3226ce.Emscripten.clang"
  },
  "schemaVersion": "3.4.3",
  "updatedAt": "2021-10-19T14:14:02.434Z",
  "networkType": "ethereum",
  "devdoc": {
    "methods": {}
  },
  "userdoc": {
    "methods": {}
  }
}