{
  "contractName": "TrafficEvents",
  "abi": [
    {
      "constant": true,
      "inputs": [],
      "name": "eventCount",
      "outputs": [
        {
          "internalType": "uint256",
          "name": "",
          "type": "uint256"
        }
      ],
      "payable": false,
      "stateMutability": "view",
      "type": "function"
    },
    {
      "constant": false,
      "inputs": [
        {
          "internalType": "string",
          "name": "_eventType",
          "type": "string"
        },
        {
          "internalType": "string",
          "name": "_date",
          "type": "string"
        },
        {
          "internalType": "string",
          "name": "_location",
          "type": "string"
        },
        {
          "internalType": "uint256",
          "name": "_speed",
          "type": "uint256"
        }
      ],
      "name": "createEvent",
      "outputs": [],
      "payable": false,
      "stateMutability": "nonpayable",
      "type": "function"
    },
    {
      "constant": true,
      "inputs": [
        {
          "internalType": "uint256",
          "name": "_id",
          "type": "uint256"
        }
      ],
      "name": "getEvent",
      "outputs": [
        {
          "internalType": "uint256",
          "name": "id",
          "type": "uint256"
        },
        {
          "internalType": "string",
          "name": "eventType",
          "type": "string"
        },
        {
          "internalType": "string",
          "name": "date",
          "type": "string"
        },
        {
          "internalType": "string",
          "name": "location",
          "type": "string"
        },
        {
          "internalType": "uint256",
          "name": "speed",
          "type": "uint256"
        },
        {
          "internalType": "address",
          "name": "owner",
          "type": "address"
        }
      ],
      "payable": false,
      "stateMutability": "view",
      "type": "function"
    }
  ],
  "bytecode": "0x60806040526000805534801561001457600080fd5b50610773806100246000396000f3fe608060405234801561001057600080fd5b50600436106100415760003560e01c80636d1884e01461004657806371be2e4a146101ce578063de4cd842146101e8575b600080fd5b6100636004803603602081101561005c57600080fd5b50356103a0565b60405180878152602001806020018060200180602001868152602001856001600160a01b03166001600160a01b03168152602001848103845289818151815260200191508051906020019080838360005b838110156100cc5781810151838201526020016100b4565b50505050905090810190601f1680156100f95780820380516001836020036101000a031916815260200191505b5084810383528851815288516020918201918a019080838360005b8381101561012c578181015183820152602001610114565b50505050905090810190601f1680156101595780820380516001836020036101000a031916815260200191505b50848103825287518152875160209182019189019080838360005b8381101561018c578181015183820152602001610174565b50505050905090810190601f1680156101b95780820380516001836020036101000a031916815260200191505b50995050505050505050505060405180910390f35b6101d66105c6565b60408051918252519081900360200190f35b61039e600480360360808110156101fe57600080fd5b81019060208101813564010000000081111561021957600080fd5b82018360208201111561022b57600080fd5b8035906020019184600183028401116401000000008311171561024d57600080fd5b91908080601f01602080910402602001604051908101604052809392919081815260200183838082843760009201919091525092959493602081019350359150506401000000008111156102a057600080fd5b8201836020820111156102b257600080fd5b803590602001918460018302840111640100000000831117156102d457600080fd5b91908080601f016020809104026020016040519081016040528093929190818152602001838380828437600092019190915250929594936020810193503591505064010000000081111561032757600080fd5b82018360208201111561033957600080fd5b8035906020019184600183028401116401000000008311171561035b57600080fd5b91908080601f01602080910402602001604051908101604052809392919081815260200183838082843760009201919091525092955050913592506105cc915050565b005b6000818152600160208181526040808420830180548251600295821615610100026000190190911694909404601f810184900484028501840190925281845285946060948594859492938493909183018282801561043f5780601f106104145761010080835404028352916020019161043f565b820191906000526020600020905b81548152906001019060200180831161042257829003601f168201915b50505060008a8152600160208181526040928390206002908101805485519481161561010002600019011691909104601f8101839004830284018301909452838352959a50909493509091508301828280156104dc5780601f106104b1576101008083540402835291602001916104dc565b820191906000526020600020905b8154815290600101906020018083116104bf57829003601f168201915b50505050509350600160008881526020019081526020016000206003018054600181600116156101000203166002900480601f01602080910402602001604051908101604052809291908181526020018280546001816001161561010002031660029004801561058d5780601f106105625761010080835404028352916020019161058d565b820191906000526020600020905b81548152906001019060200180831161057057829003601f168201915b5050506000998a525050600160205260409097206004810154600590910154969895979496949590946001600160a01b03169350915050565b60005481565b6040805160c08101825260008054808352602080840189815284860189905260608501889052608085018790523360a0860152918352600180825294909220835181559051805193949193610629939285019291909101906106a3565b50604082015180516106459160028401916020909101906106a3565b50606082015180516106619160038401916020909101906106a3565b506080820151600482015560a090910151600590910180546001600160a01b0319166001600160a01b0390921691909117905550506000805460010190555050565b828054600181600116156101000203166002900490600052602060002090601f016020900481019282601f106106e457805160ff1916838001178555610711565b82800160010185558215610711579182015b828111156107115782518255916020019190600101906106f6565b5061071d929150610721565b5090565b61073b91905b8082111561071d5760008155600101610727565b9056fea265627a7a72315820fd87e4590f71e5e6c913c1928763a99b750357bdf0f6aae1481e4485177077a664736f6c63430005100032",
  "source": "// SPDX-License-Identifier: MIT\npragma solidity >=0.4.22 <0.9.0;\n\ncontract TrafficEvents {\n  uint public eventCount = 0;\n\n  struct Event {\n    uint id;\n    string eventType;\n    string date;\n    string location;\n    uint speed;\n    address owner;\n  }\n\n  mapping(uint => Event) events;\n\n  function createEvent(string memory _eventType, string memory _date, string memory _location, uint _speed) public {\n    events[eventCount] = Event(eventCount, _eventType, _date, _location, _speed, msg.sender);\n    eventCount++;\n  }\n\n  function getEvent(uint _id) public view returns(uint id, string memory eventType,\n  string memory date, string memory location, uint speed, address owner) {\n    id = _id;\n    eventType = events[_id].eventType;\n    date = events[_id].date;\n    location = events[_id].location;\n    speed = events[_id].speed;\n    owner = events[_id].owner;\n  }\n}\n",
  "sourcePath": "/mnt/c/Users/ASUS/Desktop/Traffic-Thesis/contracts/TrafficEvents.sol",
  "compiler": {
    "name": "solc",
    "version": "0.5.16+commit.9c3226ce.Emscripten.clang"
  },
  "schemaVersion": "3.4.3",
  "updatedAt": "2021-10-12T14:07:29.419Z",
  "networkType": "ethereum",
  "devdoc": {
    "methods": {}
  },
  "userdoc": {
    "methods": {}
  }
}